:020000040000FA
:060000000A128A1110280B
:10000800FE00030E83120313B6000408B7000A08A3
:10001800B8000A128A11C42E0A128A1113288317EB
:10002800BB30FD000930FE00CF30FF009030840067
:100038000A128A15A0200A128A114730FD000B30D7
:10004800FE002830FF00103084000A128A15A02014
:100058000A128A118313E830FD000930FE001C30B3
:10006800FF00CF3084000A128A15A0200A128A11D4
:100078005630FD000730FE00FB30FF005130840091
:100088000A128A15A0200A128A1183160313E8019E
:10009800E901EA01EB014130840051300A168A1166
:1000A800E1270A128A11FA01FB01FC01FD01830113
:1000B8000A128A115F28643083160317DA000030A9
:1000C800DB00DD01DC01D3308400CF30831603135D
:1000D800CB000408CC000730CD004B088400831304
:1000E8000008CE00CB0A4C08840083174E08800015
:1000F800CC0ACD0B7128CE3084005C088000840ABD
:100108005D088000840A5E088000840A5F08800019
:10011800840A60088000C1308400A130CB00040844
:10012800CC000D30CD004B08840083170008CE00AA
:10013800CB0A4C0884004E088000CC0ACD0B9728C7
:10014800BB30840056088000840A57088000840A5F
:1001580058088000840A59088000840A5A088000D8
:10016800840A5B08800087108617831603178801A6
:1001780089010A128A157B200A128A110A128A1525
:100188006E210A128A110A128A1511250A128A1179
:100198000A128A11AB270A128A110A128A15352106
:1001A8000A128A110A128A15C4200A128A118312A5
:1001B80003138714342B342B033083160313CB001B
:1001C8004B08A6001330A7008030A80000300A12A0
:1001D8008A1527240A128A11043083160313CB00C8
:1001E8004B08A6005030A7008030A80001300A1242
:1001F8008A1527240A128A11883083160313A0004F
:100208001330A1000A128A158C210A128A1183164A
:100218000317DD01DD0A0A168A11DA270A128A1184
:10022800342B033083160313CB004B08A6001E3073
:10023800A7008030A80000300A128A1527240A1265
:100248008A11043083160313CB004B08A6004930EB
:10025800A7008030A80001300A128A1527240A1244
:100268008A11831203130710CE3083160313BB00C1
:100278000130BC0026300A128A15DD230A128A11C1
:10028800D33083160313C0000130C1000A128A1547
:1002980015260A128A1183160313CB004B088316FE
:1002A8000317DC005C08031D5A295B296529023005
:1002B80083160313CB004B0883160317DD00342B7A
:1002C8006929DD01DD0A342B69290A168A11DA2722
:1002D8000A128A1183160313A6015730A70080302B
:1002E800A80000300A128A1527240A128A11D3306E
:1002F80083160313A0000130A100C130CB004B08C6
:10030800A2000630CC004C08A3000A128A158825E2
:100318000A128A1183160313A601C130A7000130FF
:10032800A80000300A128A1527240A128A11883078
:1003380083160313A0001330A1000A128A158C211A
:100348000A128A11BB3083160313CB004B08A00096
:10035800D3300A128A1529220A128A11003A031D7B
:10036800B629B729C1290A3083160313CB004B08D5
:1003780083160317DD00342BCB290B3083160313A8
:10038800CB004B0883160317DD00342BCB290A1644
:100398008A11DA270A128A11053083160313CB0053
:1003A8004B08A6004930A7008030A80000300A1288
:1003B8008A1527240A128A11043083160313CB00E6
:1003C8004B08A6003130A7008030A80001300A127F
:1003D8008A1527240A128A11D03083160313A00025
:1003E8000730A1000A128A158C210A128A110A16EE
:1003F8008A11DA270A128A1183160313A601033019
:10040800A7008030A80000300A128A1527240A1293
:100418008A11143083160313CB004B088316031775
:10042800DD00342B0A168A11DA270A128A110530E0
:1004380083160313CB004B08A6004930A700803071
:10044800A80000300A128A1527240A128A110530DA
:1004580083160313CB004B08A6004230A700803058
:10046800A80001300A128A1527240A128A11883036
:1004780083160313A0001330A1000A128A158C21D9
:100488000A128A110A168A11DA270A128A118316A1
:100498000317DD01DD0A342B0A128A15D9200A1246
:1004A8008A11003083160313EB000030EA00003095
:1004B800E9000030E8000A128A15FA210A128A11A6
:1004C800003A0319682A692A722A15308316031319
:1004D800CB004B0883160317DD007B2A16308316E2
:1004E8000313CB004B0883160317DD007B2A831602
:1004F8000313EB1B8F2A6B08031D902A6A08031D40
:10050800902A6908031D902A02306802031D8C2A6C
:10051800031C8F2A902A342B831603175A08831634
:100528000313CB00831603175B0883160313CC0051
:100538000030CC1BFF30CD00CE006B08803AFF00A6
:100548004E08803A7F02031DB32A4D086A02031D34
:10055800B32A4C086902031DB32A4B086802031822
:10056800B62AB72A342B1730CB004B08831603174B
:10057800DD00342B342B0A128A15D9200A128A116D
:10058800831203138710043083160313CB004B0820
:10059800A6003A30A7008030A80001300A128A1558
:1005A80027240A128A11143083160313CB004B0830
:1005B80083160317DD00342B0A128A15D9200A1274
:1005C8008A11831203138710043083160313CB0098
:1005D8004B08A6002830A7008030A80001300A1276
:1005E8008A1527240A128A11143083160313CB00A4
:1005F8004B0883160317DD00342B0A128A15D920FD
:100608000A128A118312031387140A168A11DA2729
:100618000A128A11053083160313CB004B08A60073
:100628005D30A7008030A80001300A128A152724FF
:100638000A128A11883083160313A0001330A10010
:100648000A128A158C210A128A110A168A11DA27C7
:100658000A128A1183160317DD01DD0A342B342BA5
:10066800831603175D0883160313CB00CC014C08CF
:10067800003A0319402B342B4B08003A0319E028A1
:10068800013A03191529033A03196929083A031984
:10069800CB29013A0319162A1F3A0319502A013A9D
:1006A8000319BF2A033A0319E02A013A0319012B57
:1006B800342B342B342B0A128A1110288316031377
:1006C800B8000230B0003008B400B601B301802B86
:1006D8001230B0003008B6001030B0003008B30057
:1006E800902B7730B0003008B6003030B0003008BA
:1006F800B300902B902B902B3808B000B101310833
:10070800003A0319882B902B30080C3A0319752BE3
:10071800023A03196C2B902BA00102300A128A1599
:1007280072240A128A1183160313360880380A12B3
:100738008A15F1220A128A11831203138516803052
:1007480083160313B0003008A60004300A128A1575
:100758008C220A128A11803083160313B0003008E5
:10076800A6000A300A128A155A220A128A1183161A
:100778000313A00101300A128A1572240A128A1181
:1007880000300A128A15F1220A128A118312031301
:10079800851683160313B901F62BA00109300A1236
:1007A8008A1572240A128A118316031339082A0734
:1007B800B0002B080318013EB100300884008317ED
:1007C800311C831300080A128A15F1220A128A11B1
:1007D800831203138516013083160313B000300803
:1007E800B907F62B2C083902031CFB2BFC2BD12B49
:1007F800FD2BA00101300A128A1572240A128A11EF
:100808008316031338080A128A15F1220A128A116C
:100818008312031385160C30831603133806031D41
:10082800162C172C222C8030B0003008A6000D3072
:100838000A128A155A220A128A11222CFA308316B1
:100848000313B0003008B900292CA5308316031310
:10085800B000B00B2D2C302C83160313A001A00A76
:1008680004300A128A1572240A128A110A128A1589
:10087800BE220A128A1183160313B0003008BA0088
:10088800831203138516013083160313B90239083E
:1008980003194F2C502C5C2C3A18532C542C5C2CDC
:1008A8003A0833050319592C5A2C292C5C2C5C2C3A
:1008B8008030B0003008A6000D300A128A158C224C
:1008C8000A128A1183160313390803196C2C6D2C2C
:1008D800522DA001A00A06300A128A1572240A12A3
:1008E8008A110A128A15BE220A128A118316031364
:1008F800B0003008B500831203138516831603135E
:1009080035081B39B0003008B5003508031D8D2C9B
:100918008E2C4D2DB40136083A05B000301C952CAC
:10092800962C992CB401B40A992C0C303806031D66
:100938009E2C9F2C522DA001A00A0A300A128A155B
:1009480072240A128A110A128A15BE220A128A1100
:1009580083160313B0003008BA00831203138516F8
:1009680083160313A001A00A0C300A128A157224F8
:100978000A128A110A128A15BE220A128A118316CD
:100988000313B0003008B7008312031385168316CB
:10099800031337080739B0003008B70037080319C0
:1009A800D62CD72CE92C3A08B00003300310B00D30
:1009B800FF3E031DDA2C37083007F83EB1002F0838
:1009C8008400310883138000FA2C3A08B000023002
:1009D8000310B00DFF3E031DEC2C0310300DB100C9
:1009E8002F088400310883138000FA2C3A08031D6D
:1009F800FE2CFF2C022DBA01BA0A022D11303A0240
:100A0800031C072D082D0D2D1030B0003008BA003A
:100A18000D2DB901372DA001A00A09300A128A1537
:100A280072240A128A110A128A15BE220A128A111F
:100A380083160313B00039082D07B1002E080318D8
:100A4800013EB200310884008317321C831330083A
:100A58008000831203138516013083160313B00038
:100A68003008B907372D3A083902031C3C2D3D2DB3
:100A78000F2D3E2D39082D07B0002E080318013E12
:100A8800B100300884008317311C83138001522D74
:100A9800522D0230B0003008B400522D3408542DC5
:100AA800080083160313BC000230B5003508BA00ED
:100AB800B801B901732D1230B5003508B8001030EF
:100AC800B5003508B900832D7730B5003508B80072
:100AD8003030B5003508B900832D832D832D3C08AF
:100AE800B500B6013608003A03197B2D832D350869
:100AF8000C3A0319682D023A03195F2D832DBD01A5
:100B0800BE01A52D3D082F07B50030080318013E8A
:100B1800B600350884008317361C83130008B70015
:100B28003708A80009300A128A1551210A128A11B9
:100B3800013083160313BD070318BE0A0030BE0731
:100B4800A52D3108B500B60136083E02031DAE2DAD
:100B580035083D02031CB12DB22D862DB32D3C085E
:100B6800B5003508A80001300A128A1551210A1269
:100B78008A110C30831603133C06031DC42DC52DA2
:100B8800D02D8030B5003508AB000D300A128A151B
:100B9800EE200A128A11D02DFF3083160313BD00F0
:100BA800FF30BE00D72D04300A128A15AB210A1275
:100BB8008A1183160313B5003508BF000130BD0242
:100BC8000030031CBE03BE023D083E040319ED2D90
:100BD800EE2DFA2D3F18F12DF22DFA2D3F0839058B
:100BE8000319F72DF82DD72DFA2DFA2D8030B500E1
:100BF8003508AB000D300A128A1504210A128A1131
:100C0800831603133D083E0403190B2E0C2EC12E28
:100C180006300A128A15AB210A128A111B39031DE4
:100C2800162E172EBA2E83160313BA0138083F055D
:100C3800B500351C202E212E242EBA01BA0A242EE6
:100C48000C303C06031D292E2A2EC12E0A300A120A
:100C58008A15AB210A128A1183160313B5003508C9
:100C6800BF000C300A128A15AB210A128A11073903
:100C780083160313B5003508BB003B080319452E3E
:100C8800462E582E3F08B50003300310B50DFF3E21
:100C9800031D492E3B083507F83EB600340884008A
:100CA800360883138000692E3F08B5000230031010
:100CB800B50DFF3E031D5B2E0310350DB60034083D
:100CC8008400360883138000692E3F08031D6D2EAB
:100CD8006E2E712EBF01BF0A712E11303F02031C08
:100CE800762E772E7C2E1030B5003508BF007C2E6E
:100CF800BD01BE019D2E09300A128A15AB210A12C8
:100D08008A1183160313B5003D083207B60033086D
:100D18000318013EB700360884008317371C831375
:100D2800350880000130BD070318BE0A0030BE0731
:100D38009D2E3F08B500B60136083E02031DA62EBB
:100D480035083D02031CA92EAA2E7F2EAB2E3D0886
:100D58003207B50033080318013EB6003508840091
:100D68008317361C83138001C12EC12E02308316CF
:100D78000313B5003508BA00C12E3A08C32E08007F
:100D88008B1DC72EC82E942F0B1CCB2ECC2E942F28
:100D9800861FCF2ED02EDC2E8F018E010030CC0086
:100DA8000030CB000030CA000030C9001014922F68
:100DB80010100F08B200B301B401B5013508CC001A
:100DC8003408CB003308CA003208C9000830B20022
:100DD8000310C90DCA0DCB0DCC0DB20BEC2E0E08AD
:100DE800B200B301B401B5013208C90733080311D1
:100DF8000318013E0319012FCA0734080311031809
:100E0800013E0319082FCB07350803110318013ECB
:100E180003190F2FCC070030A7000030A6001330AD
:100E2800A5008830A4004C08F3004B08F2004A08DB
:100E3800F1004908F0000030F7000030F600873074
:100E4800F5009D30F4000A128A15C1240A128A118D
:100E5800730883120313AB007208AA007108A90073
:100E68007008A8000A128A15B0260A128A1183127D
:100E780003132708BC002608BB002508BA0024086D
:100E8800B9000030A7000030A6000030A5000230ED
:100E9800A4003C08AB003B08AA003A08A90039089E
:100EA800A8000A128A15B0260A128A11831203139F
:100EB8002708C0002608BF002508BE002408BD007A
:100EC8000030A7000030A6000330A500E830A400D9
:100ED8004008AB003F08AA003E08A9003D08A8004A
:100EE8000A128A15B0260A128A11831203132708D8
:100EF80083160313EB0083120313260883160313C8
:100F0800EA0083120313250883160313E9008312EA
:100F18000313240883160313E800922F0B10942F51
:100F280083120C1C982F992FA02F0C100A128A15C7
:100F38005F230A128A11A02F8312031338088A002C
:100F480037088400360E8300FE0E7E0E090003303B
:100F580083160313A5008A30A4005530A300A30B01
:100F6800B32FA40BB32FA50BB32F831603130810AD
:100F78008810081188110812881208138813033082
:100F880083160313A5008A30A4005530A300A30BD1
:100F9800CB2FA40BCB2FA50BCB2F831203138816B3
:100FA80028300A128A1556270A128A110C300A129A
:100FB8008A1556270A128A1101300A128A155627ED
:100FC8000A128A1102300A128A1556270A128A1141
:100FD800033083160313A5008A30A4005530A300FC
:100FE800A30BF42FA40BF42FA50BF42F0800303417
:100FF8003034303430340034FF1B0A2883137F1810
:1010080083170008840A0319FF0A080008308A00B9
:101018000408840A820700347834EC344D344134AF
:1010280051342E34203445344E3445345234473408
:1010380049345A34413444344134003449344E3408
:1010480044345534533454345234493441344C3490
:1010580000344534533450344534523441344E34DA
:1010680044344F34003420344C34493456345234E8
:1010780045342034203400344C3449344234453427
:101088005234413444344F340034203441344C34E5
:10109800453452345434413400344E3445344734A2
:1010A800413444344F3400344134433445345334A8
:1010B80053344F3400345334413446344534543473
:1010C8005934003454344134473420343A340034E9
:1010D8005034413452344134523400343C340034B6
:0410E8003E3400345E
:1010F6008312031788138316031789018801831245
:1011060003139412831603138C110800831603131A
:10111600A00101300A128A1572240A128A150F30AC
:101126000A128A15F1220A128A15831203138516EA
:1011360008007E088A007F0882000A128A159C2011
:101146000A128A158000840A04087D0603190034F1
:10115600FF0A0319FE0AA02883160313A500250813
:10116600A40006300310A40DFF3E031DB528230876
:1011760024077F39803E0A128A1556270A128A15D5
:1011860008008B1383120313101310109010CF3026
:101196009005EC308F0078308E000B178316031302
:1011A6000C148B17831203131014080083120313F5
:1011B60005150F3083160313A000A00BE028E328C3
:1011C6008312031305110F3083160313A000A00B1F
:1011D600EA28ED28080083160313AD002D080A122D
:1011E6008A15AB210A128A15831603132B04AC0049
:1011F6002C08A8002D080A128A1551210A128A15F0
:10120600080083160313AE002B09AC002E080A1241
:101216008A15AB210A128A15831603132C05AD0015
:101226002D08A8002E080A128A1551210A128A15BD
:101236000800303430343034303430343034003414
:10124600DA3408347E3480342C340034303430348C
:101256003034303400343034303430343034303498
:10126600303400348312031307108511CD01CE01EB
:10127600D0018B13831603138515071005118312EE
:10128600031390101013CF3090051010831603131C
:1012960086178B1596170B178B17080083160313E3
:1012A600AA00831203138512831603132A08A900C2
:1012B60029077E390A128A15F1220A128A1583161F
:1012C600031328080A128A15F1220A128A158312B4
:1012D6000313851608008316031307168712871152
:1012E600851283120313871287118512A530831680
:1012F6000313A000A00B7D29802907308316031352
:10130600A1007C30A000A00B8629A10B8629000035
:101316000800A129073083160313A3007C30A2001E
:10132600A20B9329A30B9329000001308316031304
:10133600A0020030031CA103A102A12983160313F6
:1013460020082104031DA829A9298D29AA290800F6
:1013560083160313A6008312031385128316031341
:101366002608A50025077E3980380A128A15F1223B
:101376000A128A150A128A15BE220A128A158316BD
:101386000313A5002508A7008312031385168316E9
:1013960003132708CE2908005F345F345F345F34B7
:1013A6005F345F345F345F345F345F345F345F349F
:1013B6005F345F345F345F3400345F345F345F34EE
:1013C6005F345F345F345F345F345F345F345F347F
:1013D6005F3400345F345F345F345F345F345F34CE
:1013E6005F345F345F345F345F345F3400348312BC
:1013F6000313851DFF29002A062AB830CD000B30BD
:10140600CE000714222AFF30CD070318CE0AFF307C
:10141600CE07013083160313A0000030A1000A1284
:101426008A158C210A128A15831203134D084E045D
:10143600031D1E2A1F2A222A0710222A222A0030CA
:1014460007180130D0005008282A08008316031315
:10145600A400A501A60106302602031C332A342A5D
:10146600362A572A572A26082007A1002108840071
:1014760083170008A20026082407A3002308840077
:10148600000822060319482A492A4C2AA501A50A5A
:101496004C2A0130A1002108A60706302602031CAB
:1014A600552A562A362A572A2508592A0800831605
:1014B6000313A800A001A00A28080A128A1572249C
:1014C6000A128A150A128A15BE220A128A1583166C
:1014D6000313A7002708A900831203138516831692
:1014E600031329082604A7002708A900A001280835
:1014F6000A128A1572240A128A15831603132908FA
:101506000A128A15F1220A128A1583120313851606
:10151600080083160313A800A001A00A28080A12CF
:101526008A1572240A128A150A128A15BE220A120E
:101536008A1583160313A7002708A900831203132D
:1015460085168316031326092905A7002708A9006F
:10155600A00128080A128A1572240A128A1583160F
:10156600031329080A128A15F1220A128A15831210
:1015760003138516080083160313A30108302302FC
:10158600031CC62AC72AC92AEE2AEE2A2208A00068
:101596002007A1002108A20083120313071ED42AE4
:1015A600D52ADC2A013083160313A0002008A207DF
:1015B600DC2A0A168A11E9270A128A1501308316CF
:1015C6000313A0002008A30708302302031CEC2AFB
:1015D600ED2AC92AEE2A2208F02A080083160313E8
:1015E600A2002208A0002008A300A40108302402BB
:1015F600031CFE2AFF2A012B272B272BA31F042BB4
:10160600052B092B8312031387160D2B8312031345
:1016160087120D2B831603132308A0002007A100B1
:101626002108A3000A168A11E9270A128A15013031
:1016360083160313A0002008A40708302402031C05
:10164600252B262B012B272B0800FF34FF34FF34D4
:10165600FF34FF34FF34FF34FF34FF34FF34FF34EC
:10166600FF34FF34FF34FF34FF34FF34FF34FF34DC
:10167600FF34FF34FF34FF34FF34FF34FF34FF34CC
:10168600FF34FF34FF34FF34FF34FF34FF34FF34BC
:10169600FF34FF34FF34FF34FF34FF34FF34FF34AC
:1016A600FF34FF34FF34FF34FF34FF34FF34FF349C
:1016B600FF34FF34FF34FF34EC30831203138F0002
:1016C60078308E00F30104307302031C6B2B6C2BF5
:1016D6006E2B982B982B7308F0007007413E840000
:1016E60083130008F100840A0008F20071087204EE
:1016F60003197E2B7F2B8D2B7308F0007007413E5C
:10170600840001308002840F0030031C80038002B5
:1017160084038D2B0130F0007008F3070430730248
:10172600031C962B972B6E2B982B080083160313FE
:10173600A200831203130816831603132208A000BF
:1017460004300310A00CFF3E031DA42B0F30200510
:10175600A100831203130808F0398316031321042A
:101766008312031388008812413083160313A000E6
:10177600A00BBB2BBE2B83120313881608160F3043
:10178600831603132205A000831203130808F039F9
:101796008316031320048312031388008812413032
:1017A60083160313A000A00BD62BD92B8312031389
:1017B6008816080083160313BF00A0010D300A1215
:1017C6008A1572240A128A1507300A128A15F1221E
:1017D6000A128A15831203138516831603133F080C
:1017E600BD003B08840083173C1C83133D08800022
:1017F6003B08AA003C08AB00AC01AC0A3B08AD00B4
:101806003C08AE00C130BD003D08AF000C300A12E6
:101816008A1162230A128A1583160313BE003E0834
:10182600C0004008031D182C192C202C103041062E
:1018360003191E2C1F2C262C202C0230BD003D081F
:10184600C000262C262C080083160313AB0026089E
:10185600A9002908AA002608A9002908A3002B0820
:101866000A128A15AF200A128A155A2C83160313F8
:10187600280883120313FF00831603132708840026
:10188600831203130A128A1500200A128A150A12F5
:101896008A1599230A128A15013083160313A7079E
:1018A6000318A80A0130A9002908AA075A2C83168A
:1018B6000313280883120313FF0083160313270854
:1018C6008400831203130A128A1500200A128A154D
:1018D600003A031D6F2C702C392C712C08008316CE
:1018E6000313A3008312031385128316031323081D
:1018F600A1002107A2002208A50020080319842CB4
:10190600852C8B2C25088038A1002108A500912C58
:1019160025087E39A1002108A500912CA4010830D4
:101926002402031C972C982C9A2CC02CC02CA51F83
:101936009D2C9E2CA22C831203138716A62C831291
:1019460003138712A62C831603132508A10021076B
:10195600A2002208A5000A168A11E9270A128A158A
:10196600013083160313A1002108A40708302402BE
:10197600031CBE2CBF2C9A2CC02C080000308312EE
:101986000313A3000030A2000030A1000030A00025
:10199600CC2C701CCF2CD02CEA2C74088312031389
:1019A600A007750803110318013E0319DB2CA107D4
:1019B600760803110318013E0319E22CA2077708E3
:1019C60003110318013E0319E92CA307EA2C013081
:1019D600F8000310F40DF50DF60DF70DF80BEC2CD1
:1019E60001300310F30CF20CF10CF00CFF3E031D5A
:1019F600F42C7308720471047004031D032D042D66
:101A0600CC2C052D831203132308F3002208F200C1
:101A16002108F1002008F000102D08000A128A158E
:101A260089200A128A1583160313A0012A300A1286
:101A36008A1572240A128A158D300A128A15F12225
:101A46000A128A1583120313851683160313A0013F
:101A56002B300A128A1572240A128A153E300A128F
:101A66008A15F1220A128A15831203138516831624
:101A76000313A0012D300A128A1572240A128A1540
:101A86001E300A128A15F1220A128A1583120313CE
:101A9600851683160313A0012C300A128A157224A8
:101AA6000A128A1500300A128A15F1220A128A15BC
:101AB60083120313851683160313A00115300A1229
:101AC6008A1572240A128A1540300A128A15F122E2
:101AD6000A128A1583120313851683160313A001AF
:101AE60011300A128A1572240A128A153D300A121A
:101AF6008A15F1220A128A158312031385160A160D
:101B06008A11F3270A128A15080083160313A901FE
:101B16000D2E2908A4002407A5002508A8002908D9
:101B26002007A40021080318013EA500240884000C
:101B36008317251C831300080F39A6002608AA0060
:101B460029082007A40021080318013EA50024083F
:101B560084008317251C83130008A6000430031095
:101B6600A60CFF3E031DB22D26080F39A700270835
:101B7600AB000A302A020318C12DC22DC72D303002
:101B8600A4002408AA07C72D0A302A02031CCC2D5C
:101B9600CD2DD82D10302A020318D22DD32DD82DB5
:101BA6003730A4002408AA07D82D0A302B020318C0
:101BB600DD2DDE2DE32D3030A4002408AB07E32D08
:101BC6000A302B02031CE82DE92DF42D10302B02D0
:101BD6000318EE2DEF2DF42D3730A4002408AB07A3
:101BE600F42D2B08A40028082207A5002508840048
:101BF6002408831780002A08A4002808013E22072B
:101C0600A50025088400240880000130A4002408CB
:101C1600A9070D2E23082902031C122E132E8C2D24
:101C2600142E080083160313C701A8010D300A12EB
:101C36008A1551210A128A15933083160313C2009E
:101C4600400884008317411C83134208800020301B
:101C5600C2000130C30043084007C5004108C40064
:101C66000318C40AC31BC4034408C60045088400FD
:101C76008317461C8313420880000830C2004208BE
:101C8600AB0008300A128A1504210A128A15831637
:101C960003134008AF004108B0000230C2004208FA
:101CA600B1004008B2004108B300C830C300430881
:101CB600B4000C300A128A1155250A128A158316A9
:101CC6000313C4004408C9004908031D6B2E6C2E7B
:101CD600AD2ECA0104304A02031C722E732E752ED5
:101CE600902E902E4A084007C20041080318013E74
:101CF600C300420884008317431C83130008C400F2
:101D06004408C7060130C2004208CA0704304A0226
:101D1600031C8E2E8F2E752E902E0430C200420884
:101D26004007C4004108C3000318C30AC21BC3030B
:101D36004308C500440884008317451C8313000824
:101D460047060319A72EA82EAD2E0230C200420860
:101D5600C900AD2E4908AF2E080083120313AD014A
:101D6600A71FB62EB72EC42EA409A509A609A70932
:101D7600A40A0319A50A0319A60A0319A70AAD019D
:101D8600AD0AAB1FC72EC82ED82EA809A909AA09C5
:101D9600AB09A80A0319A90A0319AA0A0319AB0A67
:101DA6000130F9007908AD06D82E0030B1000030B8
:101DB600B0000030AF000030AE002708260425042E
:101DC60024040319E72EE82E3B2FAC01AC0AF92EAA
:101DD6000130F9000310A40DA50DA60DA70DF90BF2
:101DE600ED2E0130F9007908AC07F92EA71FFC2E5D
:101DF600FD2EEB2EFF2EFF2E0130F9000310AE0D47
:101E0600AF0DB00DB10DF90B012F27082B02031DE5
:101E1600162F26082A02031D162F25082902031D40
:101E2600162F24082802031C192F1A2F2A2F2408DC
:101E3600A8022508031C250FA9022608031C260F45
:101E4600AA022708031C270FAB022E142A2F0130E3
:101E56000310A70CA60CA50CA40CFF3E031D2B2FEC
:101E66000130AC02031D382F392FFF2E3B2F3B2F9D
:101E76002D0803193F2F402F4C2FAE09AF09B0098B
:101E8600B109AE0A0319AF0A0319B00A0319B10A58
:101E96004C2F3108A7003008A6002F08A5002E08F1
:101EA600A400552F080083160313A2008312031300
:101EB6000812831603132208A00004300310A00C96
:101EC600FF3E031D612F0F302005A100831203136F
:101ED6000808F039831603132104831203138800BC
:101EE600881283160313220303197A2F7B2F822F5E
:101EF60002302206031D802F812F8D2F822F0D3059
:101F060083160313A100FB30A000A00B882FA10BA2
:101F1600882F952F413083160313A000A00B912F15
:101F2600942F952F831203138816F030831603130C
:101F36002205A00020302006031DA22FA32FC92FA3
:101F4600831203130812831603132208A000043019
:101F56000310A00CFF3E031DAB2F0F302005A10080
:101F6600831203130808F03983160313210483121E
:101F7600031388008812413083160313A000A00BB8
:101F8600C22FC52F831203138816C92F8312081276
:101F96000F30831603132205A000831203130808CB
:101FA600F039831603132004831203138800881262
:101FB6008316031322030319E12FE22FE92F0230C0
:101FC6002206031DE72FE82FF42FE92F0D30831685
:101FD6000313A100FB30A000A00BEF2FA10BEF2FE6
:101FE600FC2F413083160313A000A00BF82FFB2F04
:0A1FF600FC2F831203138816080065
:102FB40001300A128A1556270A168A11080064007D
:102FC4008001840A0406031900340406E22F8312E4
:102FD40003138715ED2FEE2F0000831203138711BF
:102FE4000800033083160313AA002A08A60014302D
:0C2FF4000A128A155A220A168A110800D7
:04400E00D2E0FFFFFE
:00000001FF
